:0400000006EF00F017
:100008000AED00F012EE25F067EF08F00600E1CFE8
:1000180004F0E2CF05F0D9CF06F0DACF07F0F3CF3E
:1000280008F0F4CF09F02AC00AF02BC00BF032C058
:100038000CF033C00DF034C00EF035C00FF013EEE5
:100048006EF0F2A22AEF00F02CEF00F0DFEF01F0E3
:1000580021C21AF022C21BF0000E116E000E106EA3
:10006800530EE66E000EE66E1AC0E6FF1BC0E6FFF2
:100078005EEC07F0D70E2A24D96E000E2B20DA6E1C
:10008800DE04D8A44AEF00F04CEF00F0F6EF00F0E1
:10009800530EE66E000EE66E1AC0E6FF1BC0E6FFC2
:1000A8005EEC07F0D70E2A24D96E000E2B20DA6EEC
:1000B800000EDF6EE050016E026A036A530EE66EB0
:1000C800000EE66E1AC0E6FF1BC0E6FF5EEC07F006
:1000D8001B0E2A24D96E010E2B20DA6E01C0DEFF1A
:1000E80002C0DEFF03C0DEFFD850016E026A036A59
:1000F800530EE66E000EE66E1AC0E6FF1BC0E6FF62
:100108005EEC07F01E0E2A24D96E010E2B20DA6E43
:1001180001C0DEFF02C0DEFF03C0DEFF016E026A1F
:10012800036A530EE66E000EE66E1AC0E6FF1BC0A9
:10013800E6FF5EEC07F0210E2A24D96E010E2B2073
:10014800DA6E01C0DEFF02C0DEFF03C0DEFF530E21
:10015800E66E000EE66E1AC0E6FF1BC0E6FF5EEC18
:1001680007F0D30E016E000E026E070E0126000E78
:1001780002222A5001262B500222030EE66E000EA0
:10018800E66E10C0E6FF11C0E6FF5EEC07F02A50ED
:100198000124D96E2B500220DA6EFDCFDEFFFECF90
:1001A800DEFFFFCFDEFF104A112A0600FC50D8A45C
:1001B800E0EF00F0E2EF00F0ABEF00F0530EE66E78
:1001C800000EE66E1AC0E6FF1BC0E6FF5EEC07F005
:1001D800190E2A24D96E010E2B20DA6E10C0DEFF0C
:1001E80011C0DDFFC0EC08F021C21EF022C21FF0D2
:1001F800530EE66E000EE66E1EC0E6FF1FC0E6FF59
:100208005EEC07F0D70E2A24D96E000E2B20DA6E8A
:10021800010EDF6E530EE66E000EE66E1EC0E6FFA0
:100228001FC0E6FF5EEC07F01B0E2A24D96E010EF4
:100238002B20DA6EDF50E06E530EE66E000EE66E8F
:100248001EC0E6FF1FC0E6FF5EEC07F01E0E2A2464
:10025800D96E010E2B20DA6EDF50D86E530EE66E83
:10026800000EE66E1EC0E6FF1FC0E6FF5EEC07F05C
:10027800210E2A24D96E010E2B20DA6EDF50016E72
:100288000150000EFC6E530EE66E000EE66E1EC0A8
:10029800E6FF1FC0E6FF5EEC07F0190E2A24D96EB0
:1002A800010E2B20DA6EDE50DE10D8B45EEF01F0BE
:1002B80060EF01F0AFEF01F0530EE66E000EE66E50
:1002C8001EC0E6FF1FC0E6FF5EEC07F0190E2A24E9
:1002D800D96E010E2B20DA6EDECF12F0DDCF13F0CF
:1002E80005001206D8A01306530EE66E000EE66E41
:1002F8001EC0E6FF1FC0E6FF5EEC07F0D30E016EDE
:10030800000E026E070E0126000E02222A50012658
:100318002B500222030EE66E000EE66E12C0E6FFB8
:1003280013C0E6FF5EEC07F02A500124D96E2B506B
:100338000220DA6EDECFFDFFDECFFEFFDDCFFFFF4E
:1003480012501310D8A4ABEF01F0ADEF01F074EF29
:1003580001F0DDEF01F00500530EE66E000EE66ECB
:100368001EC0E6FF1FC0E6FF5EEC07F0D80E2A2489
:10037800D96E000E2B20DA6EDECF01F0DDCF02F051
:1003880001C0FDFF02C0FEFFFF6A530EE66E000EBD
:10039800E66E1EC0E6FF1FC0E6FF5EEC07F0190E12
:1003A8002A24D96E010E2B20DA6E010EDE6E000EA5
:1003B800DD6EF28EF292F2A4E4EF01F0E6EF01F0C6
:1003C8001FEF04F022EE23F0DE06000EDD5A22EEC7
:1003D80023F0DE50DE10D8A4F4EF01F0F6EF01F0C0
:1003E800AEEF03F021C21CF022C21DF0000E156E04
:1003F800000E146E530EE66E000EE66E1CC0E6FF8D
:100408001DC0E6FF5EEC07F0D70E2A24D96E000E59
:100418002B20DA6EDE04D8A414EF02F016EF02F0F7
:10042800C0EF02F0530EE66E000EE66E1CC0E6FF4B
:100438001DC0E6FF5EEC07F0D70E2A24D96E000E29
:100448002B20DA6E000EDF6EE050016E026A036A3E
:10045800530EE66E000EE66E1CC0E6FF1DC0E6FFFA
:100468005EEC07F01B0E2A24D96E010E2B20DA6EE3
:1004780001C0DEFF02C0DEFF03C0DEFFD850016E00
:10048800026A036A530EE66E000EE66E1CC0E6FFB3
:100498001DC0E6FF5EEC07F01E0E2A24D96E010E81
:1004A8002B20DA6E01C0DEFF02C0DEFF03C0DEFFD4
:1004B800016E026A036A530EE66E000EE66E1CC0F9
:1004C800E6FF1DC0E6FF5EEC07F0210E2A24D96E78
:1004D800010E2B20DA6E01C0DEFF02C0DEFF03C072
:1004E800DEFF530EE66E000EE66E1CC0E6FF1DC072
:1004F800E6FF5EEC07F0D30E016E000E026E070EEB
:100508000126000E02222A5001262B500222030E39
:10051800E66E000EE66E14C0E6FF15C0E6FF5EEC60
:1005280007F02A500124D96E2B500220DA6EFDCF35
:10053800DEFFFECFDEFFFFCFDEFF144A152A0600DE
:10054800FC50D8A4AAEF02F0ACEF02F075EF02F06D
:10055800530EE66E000EE66E1CC0E6FF1DC0E6FFF9
:100568005EEC07F0190E2A24D96E010E2B20DA6EE4
:1005780014C0DEFF15C0DDFFC0EC08F021C220F07A
:1005880022C221F0530EE66E000EE66E20C0E6FF92
:1005980021C0E6FF5EEC07F0D70E2A24D96E000EC4
:1005A8002B20DA6E010EDF6E530EE66E000EE66E3D
:1005B80020C0E6FF21C0E6FF5EEC07F01B0E2A24F0
:1005C800D96E010E2B20DA6EDF50E06E530EE66E08
:1005D800000EE66E20C0E6FF21C0E6FF5EEC07F0E5
:1005E8001E0E2A24D96E010E2B20DA6EDF50D86E2B
:1005F800530EE66E000EE66E20C0E6FF21C0E6FF51
:100608005EEC07F0210E2A24D96E010E2B20DA6E3B
:10061800DF50016E0150000EFC6E530EE66E000EA8
:10062800E66E20C0E6FF21C0E6FF5EEC07F0190E7B
:100638002A24D96E010E2B20DA6EDE50DE10D8B4D3
:1006480028EF03F02AEF03F079EF03F0530EE66E7C
:10065800000EE66E20C0E6FF21C0E6FF5EEC07F064
:10066800190E2A24D96E010E2B20DA6EDECF16F071
:10067800DDCF17F005001606D8A01706530EE66E54
:10068800000EE66E20C0E6FF21C0E6FF5EEC07F034
:10069800D30E016E000E026E070E0126000E022216
:1006A8002A5001262B500222030EE66E000EE66E3B
:1006B80016C0E6FF17C0E6FF5EEC07F02A500124DB
:1006C800D96E2B500220DA6EDECFFDFFDECFFEFFA3
:1006D800DDCFFFFF16501710D8A475EF03F077EFA2
:1006E80003F03EEF03F0A7EF03F00500530EE66EAC
:1006F800000EE66E20C0E6FF21C0E6FF5EEC07F0C4
:10070800D80E2A24D96E000E2B20DA6EDECF01F027
:10071800DDCF02F001C0FDFF02C0FEFFFF6A530EED
:10072800E66E000EE66E20C0E6FF21C0E6FF5EEC36
:1007380007F0190E2A24D96E010E2B20DA6E010E4D
:10074800DE6E000EDD6EF28E080EE8CF23F2000E8C
:10075800E8CF24F2000E196E000E186E0DEF04F0AB
:10076800530EE66E000EE66E18C0E6FF19C0E6FFEF
:100778005EEC07F0240E2A24D96E010E2B20DA6EC7
:10078800DE50DE10D8B4CBEF03F0CDEF03F00BEF63
:1007980004F0530EE66E000EE66E18C0E6FF19C0B0
:1007A800E6FF5EEC07F0240E2A24D96E010E2B20FA
:1007B800DA6EDE06000EDD5A530EE66E000EE66EA9
:1007C80018C0E6FF19C0E6FF5EEC07F0240E2A24E5
:1007D800D96E010E2B20DA6EDE50DE10D8A4F7EFAA
:1007E80003F0F9EF03F00BEF04F0530EE66E000E82
:1007F800E66E18C0E6FF19C0E6FF5EEC07F0D70EFC
:100808002A24D96E000E2B20DA6E000EDF6E184AED
:10081800192A22EE1FF0DE50185CDE501958D8A0B5
:1008280018EF04F01AEF04F0B4EF03F0000ED76EDF
:10083800400ED66EF2940FC035F00EC034F00DC0E5
:1008480033F00CC032F00BC02BF00AC02AF009C0FC
:10085800F4FF08C0F3FF07C0DAFF06C0D9FF05C0E0
:10086800E2FF04C0E1FF1100080EE126000EE222BB
:10087800F29EE150F60FD96EE250DA6EFF0EDA22E0
:1008880002EE21F0EECF34F0EDCF35F0530E340206
:10089800F3CF32F0F4CF33F03502F3503326240E81
:1008A8003224E96E010E3320EA6EDECFEEFFDDCF93
:1008B800EDFFFC0E21C2E3FFFD0E22C2E3FFFE0E98
:1008C800E36AFF0EE36AFC0EE3CF34F0FD0EE3CFDC
:1008D80035F0530E3402F3CF32F0F4CF33F0350253
:1008E800F3503326D70E3224D96E000E3320DA6E39
:1008F800DE04D8A482EF04F084EF04F065EF05F07D
:10090800FC0EE3CF34F0FD0EE3CF35F0530E340286
:10091800F3CF32F0F4CF33F03502F3503326D70E4D
:100928003224D96E000E3320DA6E030EDF6EE050EB
:10093800336E346A356AFC0EE3CF30F0FD0EE3CF38
:1009480031F0530E3002F3CF2EF0F4CF2FF03102F6
:10095800F3502F261B0E2E24D96E010E2F20DA6E8F
:1009680033C0DEFF34C0DEFF35C0DEFFD850336E43
:10097800346A356AFC0EE3CF30F0FD0EE3CF31F078
:10098800530E3002F3CF2EF0F4CF2FF03102F35094
:100998002F261E0E2E24D96E010E2F20DA6E33C09C
:1009A800DEFF34C0DEFF35C0DEFF336E346A356AE1
:1009B800FC0EE3CF30F0FD0EE3CF31F0530E3002E2
:1009C800F3CF2EF0F4CF2FF03102F3502F26210E63
:1009D8002E24D96E010E2F20DA6E33C0DEFF34C00C
:1009E800DEFF35C0DEFFFE0EE3CF34F0FF0EE3CFAF
:1009F80035F0030E3402F3CF32F0F4CF33F0350282
:100A0800F3503326FC0EE3CF34F0FD0EE3CF35F080
:100A1800530E3402F3CF30F0F4CF31F03502F350F7
:100A28003126D30E346E000E356E070E3426000EB6
:100A38003522305034263150352232503424D96E84
:100A480033503520DA6EFDCFDEFFFECFDEFFFFCF5D
:100A5800DEFFFE0EE350010F2A6EFE0E2AC0E3FFF2
:100A68002A6AFF0EE3502A202A6EFF0E2AC0E3FFEF
:100A78000600FC50D8A443EF05F045EF05F0F7EF6A
:100A880004F0E150FE0FD96EE250DA6EFF0EDA2262
:100A9800FC0EE3CF34F0FD0EE3CF35F0530E3402F5
:100AA800F3CF32F0F4CF33F03502F3503326190E7A
:100AB8003224E96E010E3320EA6EDECFEEFFDDCF81
:100AC800EDFFC0EC08F0FA0E21C2E3FFFB0E22C2D4
:100AD800E3FFFA0EE3CF34F0FB0EE3CF35F0530E0D
:100AE8003402F3CF32F0F4CF33F03502F35033262B
:100AF800D70E3224D96E000E3320DA6E010EDF6E67
:100B0800FA0EE3CF34F0FB0EE3CF35F0530E340288
:100B1800F3CF32F0F4CF33F03502F35033261B0E07
:100B28003224D96E010E3320DA6EDF50E06EFA0EF1
:100B3800E3CF34F0FB0EE3CF35F0530E3402F3CF9E
:100B480032F0F4CF33F03502F35033261E0E322440
:100B5800D96E010E3320DA6EDF50D86EFA0EE3CF6D
:100B680034F0FB0EE3CF35F0530E3402F3CF32F0FE
:100B7800F4CF33F03502F3503326210E3224D96EE8
:100B8800010E3320DA6EDF50356E3550FC6AFA0EEE
:100B9800E3CF34F0FB0EE3CF35F0530E3402F3CF3E
:100BA80032F0F4CF33F03502F3503326190E3224E5
:100BB800D96E010E3320DA6EDE50DE10D8B4E7EFBE
:100BC80005F0E9EF05F05EEF06F0FA0EE3CF34F03A
:100BD800FB0EE3CF35F0530E3402F3CF32F0F4CFEF
:100BE80033F03502F3503326190E3224D96E010E34
:100BF8003320DA6EDECF34F0DDCF35F0F80E34C0B6
:100C0800E3FFF90E35C0E3FF0500F80EE3CF2AF045
:100C1800010E2A5EF80E2AC0E3FFF90EE3CF2AF090
:100C2800000E2A5AF90E2AC0E3FFF80EE3CF34F07B
:100C3800F90EE3CF35F0030E3402F3CF32F0F4CFE0
:100C480033F03502F3503326FA0EE3CF34F0FB0EBF
:100C5800E3CF35F0530E3402F3CF30F0F4CF31F058
:100C68003502F3503126D30E346E000E356E070E62
:100C78003426000E35223050342631503522325079
:100C88003424D96E33503520DA6EDECFFDFFDECF47
:100C9800FEFFDDCFFFFFF80EE3CF2AF0F90EE35099
:100CA8002A10D8A45AEF06F05CEF06F008EF06F019
:100CB80096EF06F00500FA0EE3CF34F0FB0EE3CF13
:100CC80035F0530E3402F3CF32F0F4CF33F035025F
:100CD800F3503326D80E3224D96E000E3320DA6E44
:100CE800DECF34F0DDCF35F034C0FDFF35C0FEFF78
:100CF800FF6AFA0EE3CF34F0FB0EE3CF35F0530E64
:100D08003402F3CF32F0F4CF33F03502F350332608
:100D1800190E3224D96E010E3320DA6E010EDE6E02
:100D2800000EDD6EF28EF28EF60EE126FF0EE22246
:100D38001200E652FB0EE3CF2AF0FC0EE3502A1015
:100D4800D8B4A9EF06F0ABEF06F006EF07F0FF0EF8
:100D5800E36AE32AC1EF06F0FB0EE350D890E834CB
:100D68002A6EFB0E2AC0E3FFFC0EE350E8342A6E1D
:100D7800FC0E2AC0E3FFFF0EE32AFC0EE3AEC7EF2A
:100D880006F0C9EF06F0B0EF06F0FB0EE3CF34F043
:100D9800FC0EE3CF35F0FD0EE3CF32F0FE0EE3CFCD
:100DA80033F03450325C35503358D8A0DEEF06F0BB
:100DB800E0EF06F0F2EF06F0FD0EE3502A6EFB0EB0
:100DC800E3502A5EFD0E2AC0E3FFFE0EE3502A6EB2
:100DD800FC0EE3502A5AFE0E2AC0E3FFD890FC0E00
:100DE800E332FB0EE332FF0EE3502A6E010E2A5E59
:100DF800FF0E2AC0E3FFD8A404EF07F006EF07F0C0
:100E0800C9EF06F0FD0EE3CF2AF0FE0EE3CF2BF07C
:100E1800FB0EE126FF0EE2221200E652E652FE0E1B
:100E280021C2E3FFFF0E22C2E3FF22EE1FF0DECF56
:100E380034F0DDCF35F034C0E6FF35C0E6FFFC0EF8
:100E4800E350010F346EFD0EE3CF35F0000E35226E
:100E580034C0E6FF35C0E6FF9DEC06F0FE0E2AC062
:100E6800E3FFFF0E2BC0E3FFFE0EE3CF34F0FF0ECF
:100E7800E3CF35F0530E3402F3CF32F0F4CF33F032
:100E88003502F3503326D70E3224D96E000E3320A4
:100E9800DA6EDF50D8A453EF07F055EF07F019EFDB
:100EA80007F0FE0EE3CF2AF0FF0EE3CF2BF0E5525A
:100EB800E5521200E652E652FA0EE3CF35F0FC0E88
:100EC800E3503502FE0EF3CFE3FFFF0EF4CFE3FF4E
:100ED800FB0EE124D96EFF0EE220DA6EDF50356E8C
:100EE800FC0EE3503502F3CFF4FFF36AE150FE0F36
:100EF800D96EE250DA6EFF0EDA22F350DE26F45095
:100F0800DD22FA0EE3CF35F0FD0EE124D96EFF0E97
:100F1800E220DA6EDF503502F3CFF4FFF36AE150D6
:100F2800FE0FD96EE250DA6EFF0EDA22F350DE269B
:100F3800F450DD22FE0EE3CF2AF0FF0EE3CF2BF0B4
:100F4800FA0EE126FF0EE222120022C080F023C032
:100F580081F024C082F025C083F0000E0001846F68
:100F680026C085F027C086F0000EC76F000EC66F3A
:100F7800000ED26F000ED16F530EE66E000EE66EB5
:100F880022EE1FF0DECF28F0DDCF29F028C0E6FFE3
:100F980029C0E6FF5EEC07F0D30E2A24E96E000EA6
:100FA8002B20EA6E20EE80F0520EDBCFEBFFE80636
:100FB800FCE222EE1FF0DE2A000EDD2212007AEC9F
:100FC80008F0A0EC08F0B2EC08F0000E236E010E59
:100FD800226E000E256E050E246E1A0E266E110E58
:100FE800276EA9EC07F0000E236E020E226E000E8B
:100FF800256E050E246EA60E266E100E276EA9EC21
:1010080007F0000E236E030E226E000E256E050EED
:10101800246E700E266E100E276EA9EC07F0C7EC32
:1010280008F015EF08F006EF00F0F29E22C0D9FF95
:1010380023C0DAFF24C0DEFF25C0DDFF20EE0AF062
:101048002250D9262350DA22000EDE6E000EDD6E05
:1010580020EE0CF02250D9262350DA22000EDE6E44
:10106800000EDD6EF28E120083B43DEF08F040EF03
:1010780008F0010E41EF08F0000EFF0A356E354604
:1010880035468C503518FB0B35188C6E320EE66ED3
:10109800000EE66E38EC04F038EF08F0120083B268
:1010A80058EF08F05BEF08F0010E5CEF08F0000E57
:1010B800FF0A356E35468C503518FD0B35188C6E89
:1010C80053EF08F0120000EED3F021EE52F0EE6A72
:1010D800DD50D950FCE1DA50FAE100EE4AF00E0E8C
:1010E800EE6AE806FDE10001E3EF07F0000EE8CF45
:1010F8001FF2000EE8CF20F2000EE8CF21F2000E1A
:10110800E8CF22F2080EE8CF23F2000EE8CF24F24F
:10111800120083B092EF08F095EF08F0010E96EFF9
:1011280008F0000EFF0A356E8C503518FE0B351886
:101138008C6E8DEF08F01200F288F292F19EF19C0D
:10114800F28AF294D59AD58CD596D550F80B050924
:10115800D56E000ED76E400ED66E12009590959201
:1011680095944A0E226E000E236E000E256E000E18
:10117800246E19EC08F0120011EC07F02AC021F2D5
:0C1188002BC022F21200F28ED58E120055
:020000040020DA
:08000000FFFFFFFFFFFFFFFF00
:020000040030CA
:0E000000FF071F1FFF8185FF0FC00FE00F409D
:00000001FF
